{
  "address": "0x5FbDB2315678afecb367f032d93F642f64180aa3",
  "abi": [
    {
      "inputs": [],
      "stateMutability": "nonpayable",
      "type": "constructor"
    },
    {
      "anonymous": false,
      "inputs": [
        {
          "indexed": true,
          "internalType": "address",
          "name": "owner",
          "type": "address"
        },
        {
          "indexed": true,
          "internalType": "address",
          "name": "approved",
          "type": "address"
        },
        {
          "indexed": true,
          "internalType": "uint256",
          "name": "tokenId",
          "type": "uint256"
        }
      ],
      "name": "Approval",
      "type": "event"
    },
    {
      "anonymous": false,
      "inputs": [
        {
          "indexed": true,
          "internalType": "address",
          "name": "owner",
          "type": "address"
        },
        {
          "indexed": true,
          "internalType": "address",
          "name": "operator",
          "type": "address"
        },
        {
          "indexed": false,
          "internalType": "bool",
          "name": "approved",
          "type": "bool"
        }
      ],
      "name": "ApprovalForAll",
      "type": "event"
    },
    {
      "anonymous": false,
      "inputs": [
        {
          "indexed": true,
          "internalType": "address",
          "name": "previousOwner",
          "type": "address"
        },
        {
          "indexed": true,
          "internalType": "address",
          "name": "newOwner",
          "type": "address"
        }
      ],
      "name": "OwnershipTransferred",
      "type": "event"
    },
    {
      "anonymous": false,
      "inputs": [
        {
          "indexed": true,
          "internalType": "address",
          "name": "from",
          "type": "address"
        },
        {
          "indexed": true,
          "internalType": "address",
          "name": "to",
          "type": "address"
        },
        {
          "indexed": true,
          "internalType": "uint256",
          "name": "tokenId",
          "type": "uint256"
        }
      ],
      "name": "Transfer",
      "type": "event"
    },
    {
      "inputs": [
        {
          "internalType": "address",
          "name": "to",
          "type": "address"
        },
        {
          "internalType": "uint256",
          "name": "tokenId",
          "type": "uint256"
        }
      ],
      "name": "approve",
      "outputs": [],
      "stateMutability": "nonpayable",
      "type": "function"
    },
    {
      "inputs": [
        {
          "internalType": "address",
          "name": "owner",
          "type": "address"
        }
      ],
      "name": "balanceOf",
      "outputs": [
        {
          "internalType": "uint256",
          "name": "",
          "type": "uint256"
        }
      ],
      "stateMutability": "view",
      "type": "function"
    },
    {
      "inputs": [
        {
          "internalType": "uint256",
          "name": "tokenId",
          "type": "uint256"
        }
      ],
      "name": "getApproved",
      "outputs": [
        {
          "internalType": "address",
          "name": "",
          "type": "address"
        }
      ],
      "stateMutability": "view",
      "type": "function"
    },
    {
      "inputs": [
        {
          "internalType": "address",
          "name": "owner",
          "type": "address"
        },
        {
          "internalType": "address",
          "name": "operator",
          "type": "address"
        }
      ],
      "name": "isApprovedForAll",
      "outputs": [
        {
          "internalType": "bool",
          "name": "",
          "type": "bool"
        }
      ],
      "stateMutability": "view",
      "type": "function"
    },
    {
      "inputs": [
        {
          "internalType": "address",
          "name": "coinbase",
          "type": "address"
        },
        {
          "components": [
            {
              "internalType": "bytes32",
              "name": "mixHash",
              "type": "bytes32"
            },
            {
              "internalType": "uint64",
              "name": "nonce",
              "type": "uint64"
            }
          ],
          "internalType": "struct PoWRemembranceToken.PoW",
          "name": "pow",
          "type": "tuple"
        }
      ],
      "name": "mint",
      "outputs": [
        {
          "internalType": "uint256",
          "name": "",
          "type": "uint256"
        }
      ],
      "stateMutability": "nonpayable",
      "type": "function"
    },
    {
      "inputs": [],
      "name": "name",
      "outputs": [
        {
          "internalType": "string",
          "name": "",
          "type": "string"
        }
      ],
      "stateMutability": "view",
      "type": "function"
    },
    {
      "inputs": [],
      "name": "owner",
      "outputs": [
        {
          "internalType": "address",
          "name": "",
          "type": "address"
        }
      ],
      "stateMutability": "view",
      "type": "function"
    },
    {
      "inputs": [
        {
          "internalType": "uint256",
          "name": "tokenId",
          "type": "uint256"
        }
      ],
      "name": "ownerOf",
      "outputs": [
        {
          "internalType": "address",
          "name": "",
          "type": "address"
        }
      ],
      "stateMutability": "view",
      "type": "function"
    },
    {
      "inputs": [
        {
          "internalType": "uint256",
          "name": "",
          "type": "uint256"
        }
      ],
      "name": "pows",
      "outputs": [
        {
          "internalType": "bytes32",
          "name": "mixHash",
          "type": "bytes32"
        },
        {
          "internalType": "uint64",
          "name": "nonce",
          "type": "uint64"
        }
      ],
      "stateMutability": "view",
      "type": "function"
    },
    {
      "inputs": [],
      "name": "renounceOwnership",
      "outputs": [],
      "stateMutability": "nonpayable",
      "type": "function"
    },
    {
      "inputs": [
        {
          "internalType": "address",
          "name": "from",
          "type": "address"
        },
        {
          "internalType": "address",
          "name": "to",
          "type": "address"
        },
        {
          "internalType": "uint256",
          "name": "tokenId",
          "type": "uint256"
        }
      ],
      "name": "safeTransferFrom",
      "outputs": [],
      "stateMutability": "nonpayable",
      "type": "function"
    },
    {
      "inputs": [
        {
          "internalType": "address",
          "name": "from",
          "type": "address"
        },
        {
          "internalType": "address",
          "name": "to",
          "type": "address"
        },
        {
          "internalType": "uint256",
          "name": "tokenId",
          "type": "uint256"
        },
        {
          "internalType": "bytes",
          "name": "_data",
          "type": "bytes"
        }
      ],
      "name": "safeTransferFrom",
      "outputs": [],
      "stateMutability": "nonpayable",
      "type": "function"
    },
    {
      "inputs": [
        {
          "internalType": "address",
          "name": "operator",
          "type": "address"
        },
        {
          "internalType": "bool",
          "name": "approved",
          "type": "bool"
        }
      ],
      "name": "setApprovalForAll",
      "outputs": [],
      "stateMutability": "nonpayable",
      "type": "function"
    },
    {
      "inputs": [
        {
          "internalType": "bytes4",
          "name": "interfaceId",
          "type": "bytes4"
        }
      ],
      "name": "supportsInterface",
      "outputs": [
        {
          "internalType": "bool",
          "name": "",
          "type": "bool"
        }
      ],
      "stateMutability": "view",
      "type": "function"
    },
    {
      "inputs": [],
      "name": "symbol",
      "outputs": [
        {
          "internalType": "string",
          "name": "",
          "type": "string"
        }
      ],
      "stateMutability": "view",
      "type": "function"
    },
    {
      "inputs": [
        {
          "internalType": "uint256",
          "name": "index",
          "type": "uint256"
        }
      ],
      "name": "tokenByIndex",
      "outputs": [
        {
          "internalType": "uint256",
          "name": "",
          "type": "uint256"
        }
      ],
      "stateMutability": "view",
      "type": "function"
    },
    {
      "inputs": [
        {
          "internalType": "address",
          "name": "owner",
          "type": "address"
        },
        {
          "internalType": "uint256",
          "name": "index",
          "type": "uint256"
        }
      ],
      "name": "tokenOfOwnerByIndex",
      "outputs": [
        {
          "internalType": "uint256",
          "name": "",
          "type": "uint256"
        }
      ],
      "stateMutability": "view",
      "type": "function"
    },
    {
      "inputs": [
        {
          "internalType": "uint256",
          "name": "tokenId",
          "type": "uint256"
        }
      ],
      "name": "tokenURI",
      "outputs": [
        {
          "internalType": "string",
          "name": "",
          "type": "string"
        }
      ],
      "stateMutability": "view",
      "type": "function"
    },
    {
      "inputs": [],
      "name": "totalSupply",
      "outputs": [
        {
          "internalType": "uint256",
          "name": "",
          "type": "uint256"
        }
      ],
      "stateMutability": "view",
      "type": "function"
    },
    {
      "inputs": [
        {
          "internalType": "address",
          "name": "from",
          "type": "address"
        },
        {
          "internalType": "address",
          "name": "to",
          "type": "address"
        },
        {
          "internalType": "uint256",
          "name": "tokenId",
          "type": "uint256"
        }
      ],
      "name": "transferFrom",
      "outputs": [],
      "stateMutability": "nonpayable",
      "type": "function"
    },
    {
      "inputs": [
        {
          "internalType": "address",
          "name": "newOwner",
          "type": "address"
        }
      ],
      "name": "transferOwnership",
      "outputs": [],
      "stateMutability": "nonpayable",
      "type": "function"
    },
    {
      "inputs": [
        {
          "internalType": "uint256",
          "name": "tokenID",
          "type": "uint256"
        }
      ],
      "name": "validate",
      "outputs": [],
      "stateMutability": "nonpayable",
      "type": "function"
    },
    {
      "inputs": [
        {
          "internalType": "uint256",
          "name": "",
          "type": "uint256"
        }
      ],
      "name": "validated",
      "outputs": [
        {
          "internalType": "bool",
          "name": "",
          "type": "bool"
        }
      ],
      "stateMutability": "view",
      "type": "function"
    }
  ],
  "transactionHash": "0xd4dfce796c9763f91d99673561871a81ae5bd7b4a623e7a71047effebcbaa8f9",
  "args": [],
  "numDeployments": 1,
  "solcInputHash": "db40a8d06c9ee1dbde04445b1bace5e0",
  "bytecode": "0x60806040523480156200001157600080fd5b50604080518082018252601381527f506f5752656d656d6272616e6365546f6b656e00000000000000000000000000602080830191825283518085019094526003845262504f5760e81b908401528151919291620000729160009162000101565b5080516200008890600190602084019062000101565b505050620000a56200009f620000ab60201b60201c565b620000af565b620001e3565b3390565b600b80546001600160a01b038381166001600160a01b0319831681179093556040519116919082907f8be0079c531659141344cd1fd0a4f28419497f9722a3daafe3b4186f6b6457e090600090a35050565b8280546200010f90620001a7565b90600052602060002090601f0160209004810192826200013357600085556200017e565b82601f106200014e57805160ff19168380011785556200017e565b828001600101855582156200017e579182015b828111156200017e57825182559160200191906001019062000161565b506200018c92915062000190565b5090565b5b808211156200018c576000815560010162000191565b600181811c90821680620001bc57607f821691505b602082108103620001dd57634e487b7160e01b600052602260045260246000fd5b50919050565b611dad80620001f36000396000f3fe608060405234801561001057600080fd5b506004361061014d5760003560e01c80636352211e116100c3578063b88d4fde1161007c578063b88d4fde146102e9578063bec95277146102fc578063c87b56dd1461031f578063ce4d01a314610332578063e985e9c514610345578063f2fde38b1461038157600080fd5b80636352211e1461028f57806370a08231146102a2578063715018a6146102b55780638da5cb5b146102bd57806395d89b41146102ce578063a22cb465146102d657600080fd5b806323b872dd1161011557806323b872dd146101e15780632f745c59146101f4578063407591e81461020757806342842e0e1461021a57806348c773671461022d5780634f6ccce71461027c57600080fd5b806301ffc9a71461015257806306fdde031461017a578063081812fc1461018f578063095ea7b3146101ba57806318160ddd146101cf575b600080fd5b6101656101603660046117d9565b610394565b60405190151581526020015b60405180910390f35b6101826103a5565b604051610171919061184e565b6101a261019d366004611861565b610437565b6040516001600160a01b039091168152602001610171565b6101cd6101c8366004611896565b6104d1565b005b6008545b604051908152602001610171565b6101cd6101ef3660046118c0565b6105e6565b6101d3610202366004611896565b610617565b6101d3610215366004611943565b6106ad565b6101cd6102283660046118c0565b61070a565b61025e61023b366004611861565b600c602052600090815260409020805460019091015467ffffffffffffffff1682565b6040805192835267ffffffffffffffff909116602083015201610171565b6101d361028a366004611861565b610725565b6101a261029d366004611861565b6107b8565b6101d36102b03660046119ca565b61082f565b6101cd6108b6565b600b546001600160a01b03166101a2565b6101826108ec565b6101cd6102e43660046119e5565b6108fb565b6101cd6102f7366004611a21565b61090a565b61016561030a366004611861565b600d6020526000908152604090205460ff1681565b61018261032d366004611861565b610942565b6101cd610340366004611861565b61094d565b610165610353366004611ae1565b6001600160a01b03918216600090815260056020908152604080832093909416825291909152205460ff1690565b6101cd61038f3660046119ca565b610992565b600061039f82610a2d565b92915050565b6060600080546103b490611b14565b80601f01602080910402602001604051908101604052809291908181526020018280546103e090611b14565b801561042d5780601f106104025761010080835404028352916020019161042d565b820191906000526020600020905b81548152906001019060200180831161041057829003601f168201915b5050505050905090565b6000818152600260205260408120546001600160a01b03166104b55760405162461bcd60e51b815260206004820152602c60248201527f4552433732313a20617070726f76656420717565727920666f72206e6f6e657860448201526b34b9ba32b73a103a37b5b2b760a11b60648201526084015b60405180910390fd5b506000908152600460205260409020546001600160a01b031690565b60006104dc826107b8565b9050806001600160a01b0316836001600160a01b0316036105495760405162461bcd60e51b815260206004820152602160248201527f4552433732313a20617070726f76616c20746f2063757272656e74206f776e656044820152603960f91b60648201526084016104ac565b336001600160a01b038216148061056557506105658133610353565b6105d75760405162461bcd60e51b815260206004820152603860248201527f4552433732313a20617070726f76652063616c6c6572206973206e6f74206f7760448201527f6e6572206e6f7220617070726f76656420666f7220616c6c000000000000000060648201526084016104ac565b6105e18383610a52565b505050565b6105f03382610ac0565b61060c5760405162461bcd60e51b81526004016104ac90611b4e565b6105e1838383610bb7565b60006106228361082f565b82106106845760405162461bcd60e51b815260206004820152602b60248201527f455243373231456e756d657261626c653a206f776e657220696e646578206f7560448201526a74206f6620626f756e647360a81b60648201526084016104ac565b506001600160a01b03919091166000908152600660209081526040808320938352929052205490565b6000806106ba8484610d5e565b6000818152600c6020908152604090912085518155908501516001909101805467ffffffffffffffff191667ffffffffffffffff90921691909117905590506107038482610dcb565b9392505050565b6105e18383836040518060200160405280600081525061090a565b600061073060085490565b82106107935760405162461bcd60e51b815260206004820152602c60248201527f455243373231456e756d657261626c653a20676c6f62616c20696e646578206f60448201526b7574206f6620626f756e647360a01b60648201526084016104ac565b600882815481106107a6576107a6611b9f565b90600052602060002001549050919050565b6000818152600260205260408120546001600160a01b03168061039f5760405162461bcd60e51b815260206004820152602960248201527f4552433732313a206f776e657220717565727920666f72206e6f6e657869737460448201526832b73a103a37b5b2b760b91b60648201526084016104ac565b60006001600160a01b03821661089a5760405162461bcd60e51b815260206004820152602a60248201527f4552433732313a2062616c616e636520717565727920666f7220746865207a65604482015269726f206164647265737360b01b60648201526084016104ac565b506001600160a01b031660009081526003602052604090205490565b600b546001600160a01b031633146108e05760405162461bcd60e51b81526004016104ac90611bb5565b6108ea6000610de5565b565b6060600180546103b490611b14565b610906338383610e37565b5050565b6109143383610ac0565b6109305760405162461bcd60e51b81526004016104ac90611b4e565b61093c84848484610f05565b50505050565b606061039f82610f38565b600b546001600160a01b031633146109775760405162461bcd60e51b81526004016104ac90611bb5565b6000908152600d60205260409020805460ff19166001179055565b600b546001600160a01b031633146109bc5760405162461bcd60e51b81526004016104ac90611bb5565b6001600160a01b038116610a215760405162461bcd60e51b815260206004820152602660248201527f4f776e61626c653a206e6577206f776e657220697320746865207a65726f206160448201526564647265737360d01b60648201526084016104ac565b610a2a81610de5565b50565b60006001600160e01b0319821663780e9d6360e01b148061039f575061039f826110b6565b600081815260046020526040902080546001600160a01b0319166001600160a01b0384169081179091558190610a87826107b8565b6001600160a01b03167f8c5be1e5ebec7d5bd14f71427d1e84f3dd0314c0f7b2291e5b200ac8c7c3b92560405160405180910390a45050565b6000818152600260205260408120546001600160a01b0316610b395760405162461bcd60e51b815260206004820152602c60248201527f4552433732313a206f70657261746f7220717565727920666f72206e6f6e657860448201526b34b9ba32b73a103a37b5b2b760a11b60648201526084016104ac565b6000610b44836107b8565b9050806001600160a01b0316846001600160a01b03161480610b8b57506001600160a01b0380821660009081526005602090815260408083209388168352929052205460ff165b80610baf5750836001600160a01b0316610ba484610437565b6001600160a01b0316145b949350505050565b826001600160a01b0316610bca826107b8565b6001600160a01b031614610c2e5760405162461bcd60e51b815260206004820152602560248201527f4552433732313a207472616e736665722066726f6d20696e636f72726563742060448201526437bbb732b960d91b60648201526084016104ac565b6001600160a01b038216610c905760405162461bcd60e51b8152602060048201526024808201527f4552433732313a207472616e7366657220746f20746865207a65726f206164646044820152637265737360e01b60648201526084016104ac565b610c9b838383611106565b610ca6600082610a52565b6001600160a01b0383166000908152600360205260408120805460019290610ccf908490611c00565b90915550506001600160a01b0382166000908152600360205260408120805460019290610cfd908490611c17565b909155505060008181526002602052604080822080546001600160a01b0319166001600160a01b0386811691821790925591518493918716917fddf252ad1be2c89b69c2b068fc378daa952ba7f163c4a11628f55a4df523b3ef91a4505050565b8051602080830151604051600093610dac93879391920160609390931b6bffffffffffffffffffffffff19168352601483019190915260c01b6001600160c01b0319166034820152603c0190565b60408051601f1981840301815291905280516020909101209392505050565b610906828260405180602001604052806000815250611111565b600b80546001600160a01b038381166001600160a01b0319831681179093556040519116919082907f8be0079c531659141344cd1fd0a4f28419497f9722a3daafe3b4186f6b6457e090600090a35050565b816001600160a01b0316836001600160a01b031603610e985760405162461bcd60e51b815260206004820152601960248201527f4552433732313a20617070726f766520746f2063616c6c65720000000000000060448201526064016104ac565b6001600160a01b03838116600081815260056020908152604080832094871680845294825291829020805460ff191686151590811790915591519182527f17307eab39ab6107e8899845ad3d59bd9653f200f220920489ca2b5937696c31910160405180910390a3505050565b610f10848484610bb7565b610f1c84848484611144565b61093c5760405162461bcd60e51b81526004016104ac90611c2f565b6000818152600260205260409020546060906001600160a01b0316610fb95760405162461bcd60e51b815260206004820152603160248201527f45524337323155524953746f726167653a2055524920717565727920666f72206044820152703737b732bc34b9ba32b73a103a37b5b2b760791b60648201526084016104ac565b6000828152600a602052604081208054610fd290611b14565b80601f0160208091040260200160405190810160405280929190818152602001828054610ffe90611b14565b801561104b5780601f106110205761010080835404028352916020019161104b565b820191906000526020600020905b81548152906001019060200180831161102e57829003601f168201915b50505050509050600061106960408051602081019091526000815290565b9050805160000361107b575092915050565b8151156110ad578082604051602001611095929190611c81565b60405160208183030381529060405292505050919050565b610baf84611245565b60006001600160e01b031982166380ac58cd60e01b14806110e757506001600160e01b03198216635b5e139f60e01b145b8061039f57506301ffc9a760e01b6001600160e01b031983161461039f565b6105e183838361132c565b61111b83836113e4565b6111286000848484611144565b6105e15760405162461bcd60e51b81526004016104ac90611c2f565b60006001600160a01b0384163b1561123a57604051630a85bd0160e11b81526001600160a01b0385169063150b7a0290611188903390899088908890600401611cb0565b6020604051808303816000875af19250505080156111c3575060408051601f3d908101601f191682019092526111c091810190611ced565b60015b611220573d8080156111f1576040519150601f19603f3d011682016040523d82523d6000602084013e6111f6565b606091505b5080516000036112185760405162461bcd60e51b81526004016104ac90611c2f565b805181602001fd5b6001600160e01b031916630a85bd0160e11b149050610baf565b506001949350505050565b6000818152600260205260409020546060906001600160a01b03166112c45760405162461bcd60e51b815260206004820152602f60248201527f4552433732314d657461646174613a2055524920717565727920666f72206e6f60448201526e3732bc34b9ba32b73a103a37b5b2b760891b60648201526084016104ac565b60006112db60408051602081019091526000815290565b905060008151116112fb5760405180602001604052806000815250610703565b8061130584611532565b604051602001611316929190611c81565b6040516020818303038152906040529392505050565b6001600160a01b0383166113875761138281600880546000838152600960205260408120829055600182018355919091527ff3f7a9fe364faab93b216da50a3214154f22a0a2b415b23a84c8169e8b636ee30155565b6113aa565b816001600160a01b0316836001600160a01b0316146113aa576113aa8382611633565b6001600160a01b0382166113c1576105e1816116d0565b826001600160a01b0316826001600160a01b0316146105e1576105e1828261177f565b6001600160a01b03821661143a5760405162461bcd60e51b815260206004820181905260248201527f4552433732313a206d696e7420746f20746865207a65726f206164647265737360448201526064016104ac565b6000818152600260205260409020546001600160a01b03161561149f5760405162461bcd60e51b815260206004820152601c60248201527f4552433732313a20746f6b656e20616c7265616479206d696e7465640000000060448201526064016104ac565b6114ab60008383611106565b6001600160a01b03821660009081526003602052604081208054600192906114d4908490611c17565b909155505060008181526002602052604080822080546001600160a01b0319166001600160a01b03861690811790915590518392907fddf252ad1be2c89b69c2b068fc378daa952ba7f163c4a11628f55a4df523b3ef908290a45050565b6060816000036115595750506040805180820190915260018152600360fc1b602082015290565b8160005b8115611583578061156d81611d0a565b915061157c9050600a83611d39565b915061155d565b60008167ffffffffffffffff81111561159e5761159e6118fc565b6040519080825280601f01601f1916602001820160405280156115c8576020820181803683370190505b5090505b8415610baf576115dd600183611c00565b91506115ea600a86611d4d565b6115f5906030611c17565b60f81b81838151811061160a5761160a611b9f565b60200101906001600160f81b031916908160001a90535061162c600a86611d39565b94506115cc565b600060016116408461082f565b61164a9190611c00565b60008381526007602052604090205490915080821461169d576001600160a01b03841660009081526006602090815260408083208584528252808320548484528184208190558352600790915290208190555b5060009182526007602090815260408084208490556001600160a01b039094168352600681528383209183525290812055565b6008546000906116e290600190611c00565b6000838152600960205260408120546008805493945090928490811061170a5761170a611b9f565b90600052602060002001549050806008838154811061172b5761172b611b9f565b600091825260208083209091019290925582815260099091526040808220849055858252812055600880548061176357611763611d61565b6001900381819060005260206000200160009055905550505050565b600061178a8361082f565b6001600160a01b039093166000908152600660209081526040808320868452825280832085905593825260079052919091209190915550565b6001600160e01b031981168114610a2a57600080fd5b6000602082840312156117eb57600080fd5b8135610703816117c3565b60005b838110156118115781810151838201526020016117f9565b8381111561093c5750506000910152565b6000815180845261183a8160208601602086016117f6565b601f01601f19169290920160200192915050565b6020815260006107036020830184611822565b60006020828403121561187357600080fd5b5035919050565b80356001600160a01b038116811461189157600080fd5b919050565b600080604083850312156118a957600080fd5b6118b28361187a565b946020939093013593505050565b6000806000606084860312156118d557600080fd5b6118de8461187a565b92506118ec6020850161187a565b9150604084013590509250925092565b634e487b7160e01b600052604160045260246000fd5b604051601f8201601f1916810167ffffffffffffffff8111828210171561193b5761193b6118fc565b604052919050565b600080828403606081121561195757600080fd5b6119608461187a565b92506040601f198201121561197457600080fd5b506040516040810167ffffffffffffffff8282108183111715611999576119996118fc565b81604052602086013583526040860135915080821682146119b957600080fd5b506020820152919491935090915050565b6000602082840312156119dc57600080fd5b6107038261187a565b600080604083850312156119f857600080fd5b611a018361187a565b915060208301358015158114611a1657600080fd5b809150509250929050565b60008060008060808587031215611a3757600080fd5b611a408561187a565b93506020611a4f81870161187a565b935060408601359250606086013567ffffffffffffffff80821115611a7357600080fd5b818801915088601f830112611a8757600080fd5b813581811115611a9957611a996118fc565b611aab601f8201601f19168501611912565b91508082528984828501011115611ac157600080fd5b808484018584013760008482840101525080935050505092959194509250565b60008060408385031215611af457600080fd5b611afd8361187a565b9150611b0b6020840161187a565b90509250929050565b600181811c90821680611b2857607f821691505b602082108103611b4857634e487b7160e01b600052602260045260246000fd5b50919050565b60208082526031908201527f4552433732313a207472616e736665722063616c6c6572206973206e6f74206f6040820152701ddb995c881b9bdc88185c1c1c9bdd9959607a1b606082015260800190565b634e487b7160e01b600052603260045260246000fd5b6020808252818101527f4f776e61626c653a2063616c6c6572206973206e6f7420746865206f776e6572604082015260600190565b634e487b7160e01b600052601160045260246000fd5b600082821015611c1257611c12611bea565b500390565b60008219821115611c2a57611c2a611bea565b500190565b60208082526032908201527f4552433732313a207472616e7366657220746f206e6f6e20455243373231526560408201527131b2b4bb32b91034b6b83632b6b2b73a32b960711b606082015260800190565b60008351611c938184602088016117f6565b835190830190611ca78183602088016117f6565b01949350505050565b6001600160a01b0385811682528416602082015260408101839052608060608201819052600090611ce390830184611822565b9695505050505050565b600060208284031215611cff57600080fd5b8151610703816117c3565b600060018201611d1c57611d1c611bea565b5060010190565b634e487b7160e01b600052601260045260246000fd5b600082611d4857611d48611d23565b500490565b600082611d5c57611d5c611d23565b500690565b634e487b7160e01b600052603160045260246000fdfea2646970667358221220ae1666d61e8631f32fe3e98346873726adf538bd41686356ccec6eb4425aea4d64736f6c634300080e0033",
  "devdoc": {
    "kind": "dev",
    "methods": {
      "approve(address,uint256)": {
        "details": "See {IERC721-approve}."
      },
      "balanceOf(address)": {
        "details": "See {IERC721-balanceOf}."
      },
      "getApproved(uint256)": {
        "details": "See {IERC721-getApproved}."
      },
      "isApprovedForAll(address,address)": {
        "details": "See {IERC721-isApprovedForAll}."
      },
      "name()": {
        "details": "See {IERC721Metadata-name}."
      },
      "owner()": {
        "details": "Returns the address of the current owner."
      },
      "ownerOf(uint256)": {
        "details": "See {IERC721-ownerOf}."
      },
      "renounceOwnership()": {
        "details": "Leaves the contract without owner. It will not be possible to call `onlyOwner` functions anymore. Can only be called by the current owner. NOTE: Renouncing ownership will leave the contract without an owner, thereby removing any functionality that is only available to the owner."
      },
      "safeTransferFrom(address,address,uint256)": {
        "details": "See {IERC721-safeTransferFrom}."
      },
      "safeTransferFrom(address,address,uint256,bytes)": {
        "details": "See {IERC721-safeTransferFrom}."
      },
      "setApprovalForAll(address,bool)": {
        "details": "See {IERC721-setApprovalForAll}."
      },
      "symbol()": {
        "details": "See {IERC721Metadata-symbol}."
      },
      "tokenByIndex(uint256)": {
        "details": "See {IERC721Enumerable-tokenByIndex}."
      },
      "tokenOfOwnerByIndex(address,uint256)": {
        "details": "See {IERC721Enumerable-tokenOfOwnerByIndex}."
      },
      "totalSupply()": {
        "details": "See {IERC721Enumerable-totalSupply}."
      },
      "transferFrom(address,address,uint256)": {
        "details": "See {IERC721-transferFrom}."
      },
      "transferOwnership(address)": {
        "details": "Transfers ownership of the contract to a new account (`newOwner`). Can only be called by the current owner."
      }
    },
    "version": 1
  },
  "userdoc": {
    "kind": "user",
    "methods": {},
    "version": 1
  },
  "storageLayout": {
    "storage": [
      {
        "astId": 130,
        "contract": "src/PoWRemembranceToken.sol:PoWRemembranceToken",
        "label": "_name",
        "offset": 0,
        "slot": "0",
        "type": "t_string_storage"
      },
      {
        "astId": 132,
        "contract": "src/PoWRemembranceToken.sol:PoWRemembranceToken",
        "label": "_symbol",
        "offset": 0,
        "slot": "1",
        "type": "t_string_storage"
      },
      {
        "astId": 136,
        "contract": "src/PoWRemembranceToken.sol:PoWRemembranceToken",
        "label": "_owners",
        "offset": 0,
        "slot": "2",
        "type": "t_mapping(t_uint256,t_address)"
      },
      {
        "astId": 140,
        "contract": "src/PoWRemembranceToken.sol:PoWRemembranceToken",
        "label": "_balances",
        "offset": 0,
        "slot": "3",
        "type": "t_mapping(t_address,t_uint256)"
      },
      {
        "astId": 144,
        "contract": "src/PoWRemembranceToken.sol:PoWRemembranceToken",
        "label": "_tokenApprovals",
        "offset": 0,
        "slot": "4",
        "type": "t_mapping(t_uint256,t_address)"
      },
      {
        "astId": 150,
        "contract": "src/PoWRemembranceToken.sol:PoWRemembranceToken",
        "label": "_operatorApprovals",
        "offset": 0,
        "slot": "5",
        "type": "t_mapping(t_address,t_mapping(t_address,t_bool))"
      },
      {
        "astId": 1119,
        "contract": "src/PoWRemembranceToken.sol:PoWRemembranceToken",
        "label": "_ownedTokens",
        "offset": 0,
        "slot": "6",
        "type": "t_mapping(t_address,t_mapping(t_uint256,t_uint256))"
      },
      {
        "astId": 1123,
        "contract": "src/PoWRemembranceToken.sol:PoWRemembranceToken",
        "label": "_ownedTokensIndex",
        "offset": 0,
        "slot": "7",
        "type": "t_mapping(t_uint256,t_uint256)"
      },
      {
        "astId": 1126,
        "contract": "src/PoWRemembranceToken.sol:PoWRemembranceToken",
        "label": "_allTokens",
        "offset": 0,
        "slot": "8",
        "type": "t_array(t_uint256)dyn_storage"
      },
      {
        "astId": 1130,
        "contract": "src/PoWRemembranceToken.sol:PoWRemembranceToken",
        "label": "_allTokensIndex",
        "offset": 0,
        "slot": "9",
        "type": "t_mapping(t_uint256,t_uint256)"
      },
      {
        "astId": 1455,
        "contract": "src/PoWRemembranceToken.sol:PoWRemembranceToken",
        "label": "_tokenURIs",
        "offset": 0,
        "slot": "10",
        "type": "t_mapping(t_uint256,t_string_storage)"
      },
      {
        "astId": 7,
        "contract": "src/PoWRemembranceToken.sol:PoWRemembranceToken",
        "label": "_owner",
        "offset": 0,
        "slot": "11",
        "type": "t_address"
      },
      {
        "astId": 2209,
        "contract": "src/PoWRemembranceToken.sol:PoWRemembranceToken",
        "label": "pows",
        "offset": 0,
        "slot": "12",
        "type": "t_mapping(t_uint256,t_struct(PoW)2204_storage)"
      },
      {
        "astId": 2213,
        "contract": "src/PoWRemembranceToken.sol:PoWRemembranceToken",
        "label": "validated",
        "offset": 0,
        "slot": "13",
        "type": "t_mapping(t_uint256,t_bool)"
      }
    ],
    "types": {
      "t_address": {
        "encoding": "inplace",
        "label": "address",
        "numberOfBytes": "20"
      },
      "t_array(t_uint256)dyn_storage": {
        "base": "t_uint256",
        "encoding": "dynamic_array",
        "label": "uint256[]",
        "numberOfBytes": "32"
      },
      "t_bool": {
        "encoding": "inplace",
        "label": "bool",
        "numberOfBytes": "1"
      },
      "t_bytes32": {
        "encoding": "inplace",
        "label": "bytes32",
        "numberOfBytes": "32"
      },
      "t_mapping(t_address,t_bool)": {
        "encoding": "mapping",
        "key": "t_address",
        "label": "mapping(address => bool)",
        "numberOfBytes": "32",
        "value": "t_bool"
      },
      "t_mapping(t_address,t_mapping(t_address,t_bool))": {
        "encoding": "mapping",
        "key": "t_address",
        "label": "mapping(address => mapping(address => bool))",
        "numberOfBytes": "32",
        "value": "t_mapping(t_address,t_bool)"
      },
      "t_mapping(t_address,t_mapping(t_uint256,t_uint256))": {
        "encoding": "mapping",
        "key": "t_address",
        "label": "mapping(address => mapping(uint256 => uint256))",
        "numberOfBytes": "32",
        "value": "t_mapping(t_uint256,t_uint256)"
      },
      "t_mapping(t_address,t_uint256)": {
        "encoding": "mapping",
        "key": "t_address",
        "label": "mapping(address => uint256)",
        "numberOfBytes": "32",
        "value": "t_uint256"
      },
      "t_mapping(t_uint256,t_address)": {
        "encoding": "mapping",
        "key": "t_uint256",
        "label": "mapping(uint256 => address)",
        "numberOfBytes": "32",
        "value": "t_address"
      },
      "t_mapping(t_uint256,t_bool)": {
        "encoding": "mapping",
        "key": "t_uint256",
        "label": "mapping(uint256 => bool)",
        "numberOfBytes": "32",
        "value": "t_bool"
      },
      "t_mapping(t_uint256,t_string_storage)": {
        "encoding": "mapping",
        "key": "t_uint256",
        "label": "mapping(uint256 => string)",
        "numberOfBytes": "32",
        "value": "t_string_storage"
      },
      "t_mapping(t_uint256,t_struct(PoW)2204_storage)": {
        "encoding": "mapping",
        "key": "t_uint256",
        "label": "mapping(uint256 => struct PoWRemembranceToken.PoW)",
        "numberOfBytes": "32",
        "value": "t_struct(PoW)2204_storage"
      },
      "t_mapping(t_uint256,t_uint256)": {
        "encoding": "mapping",
        "key": "t_uint256",
        "label": "mapping(uint256 => uint256)",
        "numberOfBytes": "32",
        "value": "t_uint256"
      },
      "t_string_storage": {
        "encoding": "bytes",
        "label": "string",
        "numberOfBytes": "32"
      },
      "t_struct(PoW)2204_storage": {
        "encoding": "inplace",
        "label": "struct PoWRemembranceToken.PoW",
        "members": [
          {
            "astId": 2201,
            "contract": "src/PoWRemembranceToken.sol:PoWRemembranceToken",
            "label": "mixHash",
            "offset": 0,
            "slot": "0",
            "type": "t_bytes32"
          },
          {
            "astId": 2203,
            "contract": "src/PoWRemembranceToken.sol:PoWRemembranceToken",
            "label": "nonce",
            "offset": 0,
            "slot": "1",
            "type": "t_uint64"
          }
        ],
        "numberOfBytes": "64"
      },
      "t_uint256": {
        "encoding": "inplace",
        "label": "uint256",
        "numberOfBytes": "32"
      },
      "t_uint64": {
        "encoding": "inplace",
        "label": "uint64",
        "numberOfBytes": "8"
      }
    }
  }
}