{
  "address": "0x5FbDB2315678afecb367f032d93F642f64180aa3",
  "abi": [
    {
      "inputs": [],
      "stateMutability": "nonpayable",
      "type": "constructor"
    },
    {
      "anonymous": false,
      "inputs": [
        {
          "indexed": true,
          "internalType": "address",
          "name": "owner",
          "type": "address"
        },
        {
          "indexed": true,
          "internalType": "address",
          "name": "approved",
          "type": "address"
        },
        {
          "indexed": true,
          "internalType": "uint256",
          "name": "tokenId",
          "type": "uint256"
        }
      ],
      "name": "Approval",
      "type": "event"
    },
    {
      "anonymous": false,
      "inputs": [
        {
          "indexed": true,
          "internalType": "address",
          "name": "owner",
          "type": "address"
        },
        {
          "indexed": true,
          "internalType": "address",
          "name": "operator",
          "type": "address"
        },
        {
          "indexed": false,
          "internalType": "bool",
          "name": "approved",
          "type": "bool"
        }
      ],
      "name": "ApprovalForAll",
      "type": "event"
    },
    {
      "anonymous": false,
      "inputs": [
        {
          "indexed": true,
          "internalType": "address",
          "name": "previousOwner",
          "type": "address"
        },
        {
          "indexed": true,
          "internalType": "address",
          "name": "newOwner",
          "type": "address"
        }
      ],
      "name": "OwnershipTransferred",
      "type": "event"
    },
    {
      "anonymous": false,
      "inputs": [
        {
          "indexed": true,
          "internalType": "address",
          "name": "from",
          "type": "address"
        },
        {
          "indexed": true,
          "internalType": "address",
          "name": "to",
          "type": "address"
        },
        {
          "indexed": true,
          "internalType": "uint256",
          "name": "tokenId",
          "type": "uint256"
        }
      ],
      "name": "Transfer",
      "type": "event"
    },
    {
      "inputs": [
        {
          "internalType": "address",
          "name": "to",
          "type": "address"
        },
        {
          "internalType": "uint256",
          "name": "tokenId",
          "type": "uint256"
        }
      ],
      "name": "approve",
      "outputs": [],
      "stateMutability": "nonpayable",
      "type": "function"
    },
    {
      "inputs": [
        {
          "internalType": "address",
          "name": "owner",
          "type": "address"
        }
      ],
      "name": "balanceOf",
      "outputs": [
        {
          "internalType": "uint256",
          "name": "",
          "type": "uint256"
        }
      ],
      "stateMutability": "view",
      "type": "function"
    },
    {
      "inputs": [
        {
          "internalType": "uint256",
          "name": "tokenId",
          "type": "uint256"
        }
      ],
      "name": "getApproved",
      "outputs": [
        {
          "internalType": "address",
          "name": "",
          "type": "address"
        }
      ],
      "stateMutability": "view",
      "type": "function"
    },
    {
      "inputs": [
        {
          "internalType": "address",
          "name": "owner",
          "type": "address"
        },
        {
          "internalType": "address",
          "name": "operator",
          "type": "address"
        }
      ],
      "name": "isApprovedForAll",
      "outputs": [
        {
          "internalType": "bool",
          "name": "",
          "type": "bool"
        }
      ],
      "stateMutability": "view",
      "type": "function"
    },
    {
      "inputs": [
        {
          "internalType": "address",
          "name": "coinbase",
          "type": "address"
        },
        {
          "components": [
            {
              "internalType": "bytes32",
              "name": "mixHash",
              "type": "bytes32"
            },
            {
              "internalType": "uint64",
              "name": "nonce",
              "type": "uint64"
            }
          ],
          "internalType": "struct POWRemembranceToken.POW",
          "name": "pow",
          "type": "tuple"
        }
      ],
      "name": "mint",
      "outputs": [
        {
          "internalType": "uint256",
          "name": "",
          "type": "uint256"
        }
      ],
      "stateMutability": "nonpayable",
      "type": "function"
    },
    {
      "inputs": [],
      "name": "name",
      "outputs": [
        {
          "internalType": "string",
          "name": "",
          "type": "string"
        }
      ],
      "stateMutability": "view",
      "type": "function"
    },
    {
      "inputs": [],
      "name": "owner",
      "outputs": [
        {
          "internalType": "address",
          "name": "",
          "type": "address"
        }
      ],
      "stateMutability": "view",
      "type": "function"
    },
    {
      "inputs": [
        {
          "internalType": "uint256",
          "name": "tokenId",
          "type": "uint256"
        }
      ],
      "name": "ownerOf",
      "outputs": [
        {
          "internalType": "address",
          "name": "",
          "type": "address"
        }
      ],
      "stateMutability": "view",
      "type": "function"
    },
    {
      "inputs": [
        {
          "internalType": "uint256",
          "name": "",
          "type": "uint256"
        }
      ],
      "name": "pows",
      "outputs": [
        {
          "internalType": "bytes32",
          "name": "mixHash",
          "type": "bytes32"
        },
        {
          "internalType": "uint64",
          "name": "nonce",
          "type": "uint64"
        }
      ],
      "stateMutability": "view",
      "type": "function"
    },
    {
      "inputs": [],
      "name": "renounceOwnership",
      "outputs": [],
      "stateMutability": "nonpayable",
      "type": "function"
    },
    {
      "inputs": [
        {
          "internalType": "address",
          "name": "from",
          "type": "address"
        },
        {
          "internalType": "address",
          "name": "to",
          "type": "address"
        },
        {
          "internalType": "uint256",
          "name": "tokenId",
          "type": "uint256"
        }
      ],
      "name": "safeTransferFrom",
      "outputs": [],
      "stateMutability": "nonpayable",
      "type": "function"
    },
    {
      "inputs": [
        {
          "internalType": "address",
          "name": "from",
          "type": "address"
        },
        {
          "internalType": "address",
          "name": "to",
          "type": "address"
        },
        {
          "internalType": "uint256",
          "name": "tokenId",
          "type": "uint256"
        },
        {
          "internalType": "bytes",
          "name": "_data",
          "type": "bytes"
        }
      ],
      "name": "safeTransferFrom",
      "outputs": [],
      "stateMutability": "nonpayable",
      "type": "function"
    },
    {
      "inputs": [
        {
          "internalType": "address",
          "name": "operator",
          "type": "address"
        },
        {
          "internalType": "bool",
          "name": "approved",
          "type": "bool"
        }
      ],
      "name": "setApprovalForAll",
      "outputs": [],
      "stateMutability": "nonpayable",
      "type": "function"
    },
    {
      "inputs": [
        {
          "internalType": "bytes4",
          "name": "interfaceId",
          "type": "bytes4"
        }
      ],
      "name": "supportsInterface",
      "outputs": [
        {
          "internalType": "bool",
          "name": "",
          "type": "bool"
        }
      ],
      "stateMutability": "view",
      "type": "function"
    },
    {
      "inputs": [],
      "name": "symbol",
      "outputs": [
        {
          "internalType": "string",
          "name": "",
          "type": "string"
        }
      ],
      "stateMutability": "view",
      "type": "function"
    },
    {
      "inputs": [
        {
          "internalType": "uint256",
          "name": "index",
          "type": "uint256"
        }
      ],
      "name": "tokenByIndex",
      "outputs": [
        {
          "internalType": "uint256",
          "name": "",
          "type": "uint256"
        }
      ],
      "stateMutability": "view",
      "type": "function"
    },
    {
      "inputs": [
        {
          "internalType": "address",
          "name": "owner",
          "type": "address"
        },
        {
          "internalType": "uint256",
          "name": "index",
          "type": "uint256"
        }
      ],
      "name": "tokenOfOwnerByIndex",
      "outputs": [
        {
          "internalType": "uint256",
          "name": "",
          "type": "uint256"
        }
      ],
      "stateMutability": "view",
      "type": "function"
    },
    {
      "inputs": [
        {
          "internalType": "uint256",
          "name": "tokenId",
          "type": "uint256"
        }
      ],
      "name": "tokenURI",
      "outputs": [
        {
          "internalType": "string",
          "name": "",
          "type": "string"
        }
      ],
      "stateMutability": "view",
      "type": "function"
    },
    {
      "inputs": [],
      "name": "totalSupply",
      "outputs": [
        {
          "internalType": "uint256",
          "name": "",
          "type": "uint256"
        }
      ],
      "stateMutability": "view",
      "type": "function"
    },
    {
      "inputs": [
        {
          "internalType": "address",
          "name": "from",
          "type": "address"
        },
        {
          "internalType": "address",
          "name": "to",
          "type": "address"
        },
        {
          "internalType": "uint256",
          "name": "tokenId",
          "type": "uint256"
        }
      ],
      "name": "transferFrom",
      "outputs": [],
      "stateMutability": "nonpayable",
      "type": "function"
    },
    {
      "inputs": [
        {
          "internalType": "address",
          "name": "newOwner",
          "type": "address"
        }
      ],
      "name": "transferOwnership",
      "outputs": [],
      "stateMutability": "nonpayable",
      "type": "function"
    }
  ],
  "transactionHash": "0x2f6f3ee8524134183a30e09dae9a5d2644e3a5ee8641ffc57baf771953582edc",
  "args": [],
  "numDeployments": 1,
  "solcInputHash": "d022465063d62eb2f629dce94da5865c",
  "bytecode": "0x60806040523480156200001157600080fd5b50604080518082018252601381527f504f5752656d656d6272616e6365546f6b656e00000000000000000000000000602080830191825283518085019094526003845262504f5760e81b908401528151919291620000729160009162000101565b5080516200008890600190602084019062000101565b505050620000a56200009f620000ab60201b60201c565b620000af565b620001e3565b3390565b600b80546001600160a01b038381166001600160a01b0319831681179093556040519116919082907f8be0079c531659141344cd1fd0a4f28419497f9722a3daafe3b4186f6b6457e090600090a35050565b8280546200010f90620001a7565b90600052602060002090601f0160209004810192826200013357600085556200017e565b82601f106200014e57805160ff19168380011785556200017e565b828001600101855582156200017e579182015b828111156200017e57825182559160200191906001019062000161565b506200018c92915062000190565b5090565b5b808211156200018c576000815560010162000191565b600181811c90821680620001bc57607f821691505b602082108103620001dd57634e487b7160e01b600052602260045260246000fd5b50919050565b611d4780620001f36000396000f3fe608060405234801561001057600080fd5b50600436106101375760003560e01c80634f6ccce7116100b857806395d89b411161007c57806395d89b41146102b8578063a22cb465146102c0578063b88d4fde146102d3578063c87b56dd146102e6578063e985e9c5146102f9578063f2fde38b1461033557600080fd5b80634f6ccce7146102665780636352211e1461027957806370a082311461028c578063715018a61461029f5780638da5cb5b146102a757600080fd5b806323b872dd116100ff57806323b872dd146101cb5780632f745c59146101de578063407591e8146101f157806342842e0e1461020457806348c773671461021757600080fd5b806301ffc9a71461013c57806306fdde0314610164578063081812fc14610179578063095ea7b3146101a457806318160ddd146101b9575b600080fd5b61014f61014a3660046117a8565b610348565b60405190151581526020015b60405180910390f35b61016c610359565b60405161015b919061181d565b61018c610187366004611830565b6103eb565b6040516001600160a01b03909116815260200161015b565b6101b76101b2366004611865565b610485565b005b6008545b60405190815260200161015b565b6101b76101d936600461188f565b61059a565b6101bd6101ec366004611865565b6105cb565b6101bd6101ff366004611912565b610661565b6101b761021236600461188f565b6106be565b610248610225366004611830565b600c602052600090815260409020805460019091015467ffffffffffffffff1682565b6040805192835267ffffffffffffffff90911660208301520161015b565b6101bd610274366004611830565b6106d9565b61018c610287366004611830565b61076c565b6101bd61029a366004611999565b6107e3565b6101b761086a565b600b546001600160a01b031661018c565b61016c6108d0565b6101b76102ce3660046119b4565b6108df565b6101b76102e13660046119f0565b6108ee565b61016c6102f4366004611830565b610926565b61014f610307366004611ab0565b6001600160a01b03918216600090815260056020908152604080832093909416825291909152205460ff1690565b6101b7610343366004611999565b610931565b6000610353826109fc565b92915050565b60606000805461036890611ae3565b80601f016020809104026020016040519081016040528092919081815260200182805461039490611ae3565b80156103e15780601f106103b6576101008083540402835291602001916103e1565b820191906000526020600020905b8154815290600101906020018083116103c457829003601f168201915b5050505050905090565b6000818152600260205260408120546001600160a01b03166104695760405162461bcd60e51b815260206004820152602c60248201527f4552433732313a20617070726f76656420717565727920666f72206e6f6e657860448201526b34b9ba32b73a103a37b5b2b760a11b60648201526084015b60405180910390fd5b506000908152600460205260409020546001600160a01b031690565b60006104908261076c565b9050806001600160a01b0316836001600160a01b0316036104fd5760405162461bcd60e51b815260206004820152602160248201527f4552433732313a20617070726f76616c20746f2063757272656e74206f776e656044820152603960f91b6064820152608401610460565b336001600160a01b038216148061051957506105198133610307565b61058b5760405162461bcd60e51b815260206004820152603860248201527f4552433732313a20617070726f76652063616c6c6572206973206e6f74206f7760448201527f6e6572206e6f7220617070726f76656420666f7220616c6c00000000000000006064820152608401610460565b6105958383610a21565b505050565b6105a43382610a8f565b6105c05760405162461bcd60e51b815260040161046090611b1d565b610595838383610b86565b60006105d6836107e3565b82106106385760405162461bcd60e51b815260206004820152602b60248201527f455243373231456e756d657261626c653a206f776e657220696e646578206f7560448201526a74206f6620626f756e647360a81b6064820152608401610460565b506001600160a01b03919091166000908152600660209081526040808320938352929052205490565b60008061066e8484610d2d565b6000818152600c6020908152604090912085518155908501516001909101805467ffffffffffffffff191667ffffffffffffffff90921691909117905590506106b78482610d9a565b9392505050565b610595838383604051806020016040528060008152506108ee565b60006106e460085490565b82106107475760405162461bcd60e51b815260206004820152602c60248201527f455243373231456e756d657261626c653a20676c6f62616c20696e646578206f60448201526b7574206f6620626f756e647360a01b6064820152608401610460565b6008828154811061075a5761075a611b6e565b90600052602060002001549050919050565b6000818152600260205260408120546001600160a01b0316806103535760405162461bcd60e51b815260206004820152602960248201527f4552433732313a206f776e657220717565727920666f72206e6f6e657869737460448201526832b73a103a37b5b2b760b91b6064820152608401610460565b60006001600160a01b03821661084e5760405162461bcd60e51b815260206004820152602a60248201527f4552433732313a2062616c616e636520717565727920666f7220746865207a65604482015269726f206164647265737360b01b6064820152608401610460565b506001600160a01b031660009081526003602052604090205490565b600b546001600160a01b031633146108c45760405162461bcd60e51b815260206004820181905260248201527f4f776e61626c653a2063616c6c6572206973206e6f7420746865206f776e65726044820152606401610460565b6108ce6000610db4565b565b60606001805461036890611ae3565b6108ea338383610e06565b5050565b6108f83383610a8f565b6109145760405162461bcd60e51b815260040161046090611b1d565b61092084848484610ed4565b50505050565b606061035382610f07565b600b546001600160a01b0316331461098b5760405162461bcd60e51b815260206004820181905260248201527f4f776e61626c653a2063616c6c6572206973206e6f7420746865206f776e65726044820152606401610460565b6001600160a01b0381166109f05760405162461bcd60e51b815260206004820152602660248201527f4f776e61626c653a206e6577206f776e657220697320746865207a65726f206160448201526564647265737360d01b6064820152608401610460565b6109f981610db4565b50565b60006001600160e01b0319821663780e9d6360e01b1480610353575061035382611085565b600081815260046020526040902080546001600160a01b0319166001600160a01b0384169081179091558190610a568261076c565b6001600160a01b03167f8c5be1e5ebec7d5bd14f71427d1e84f3dd0314c0f7b2291e5b200ac8c7c3b92560405160405180910390a45050565b6000818152600260205260408120546001600160a01b0316610b085760405162461bcd60e51b815260206004820152602c60248201527f4552433732313a206f70657261746f7220717565727920666f72206e6f6e657860448201526b34b9ba32b73a103a37b5b2b760a11b6064820152608401610460565b6000610b138361076c565b9050806001600160a01b0316846001600160a01b03161480610b5a57506001600160a01b0380821660009081526005602090815260408083209388168352929052205460ff165b80610b7e5750836001600160a01b0316610b73846103eb565b6001600160a01b0316145b949350505050565b826001600160a01b0316610b998261076c565b6001600160a01b031614610bfd5760405162461bcd60e51b815260206004820152602560248201527f4552433732313a207472616e736665722066726f6d20696e636f72726563742060448201526437bbb732b960d91b6064820152608401610460565b6001600160a01b038216610c5f5760405162461bcd60e51b8152602060048201526024808201527f4552433732313a207472616e7366657220746f20746865207a65726f206164646044820152637265737360e01b6064820152608401610460565b610c6a8383836110d5565b610c75600082610a21565b6001600160a01b0383166000908152600360205260408120805460019290610c9e908490611b9a565b90915550506001600160a01b0382166000908152600360205260408120805460019290610ccc908490611bb1565b909155505060008181526002602052604080822080546001600160a01b0319166001600160a01b0386811691821790925591518493918716917fddf252ad1be2c89b69c2b068fc378daa952ba7f163c4a11628f55a4df523b3ef91a4505050565b8051602080830151604051600093610d7b93879391920160609390931b6bffffffffffffffffffffffff19168352601483019190915260c01b6001600160c01b0319166034820152603c0190565b60408051601f1981840301815291905280516020909101209392505050565b6108ea8282604051806020016040528060008152506110e0565b600b80546001600160a01b038381166001600160a01b0319831681179093556040519116919082907f8be0079c531659141344cd1fd0a4f28419497f9722a3daafe3b4186f6b6457e090600090a35050565b816001600160a01b0316836001600160a01b031603610e675760405162461bcd60e51b815260206004820152601960248201527f4552433732313a20617070726f766520746f2063616c6c6572000000000000006044820152606401610460565b6001600160a01b03838116600081815260056020908152604080832094871680845294825291829020805460ff191686151590811790915591519182527f17307eab39ab6107e8899845ad3d59bd9653f200f220920489ca2b5937696c31910160405180910390a3505050565b610edf848484610b86565b610eeb84848484611113565b6109205760405162461bcd60e51b815260040161046090611bc9565b6000818152600260205260409020546060906001600160a01b0316610f885760405162461bcd60e51b815260206004820152603160248201527f45524337323155524953746f726167653a2055524920717565727920666f72206044820152703737b732bc34b9ba32b73a103a37b5b2b760791b6064820152608401610460565b6000828152600a602052604081208054610fa190611ae3565b80601f0160208091040260200160405190810160405280929190818152602001828054610fcd90611ae3565b801561101a5780601f10610fef5761010080835404028352916020019161101a565b820191906000526020600020905b815481529060010190602001808311610ffd57829003601f168201915b50505050509050600061103860408051602081019091526000815290565b9050805160000361104a575092915050565b81511561107c578082604051602001611064929190611c1b565b60405160208183030381529060405292505050919050565b610b7e84611214565b60006001600160e01b031982166380ac58cd60e01b14806110b657506001600160e01b03198216635b5e139f60e01b145b8061035357506301ffc9a760e01b6001600160e01b0319831614610353565b6105958383836112fb565b6110ea83836113b3565b6110f76000848484611113565b6105955760405162461bcd60e51b815260040161046090611bc9565b60006001600160a01b0384163b1561120957604051630a85bd0160e11b81526001600160a01b0385169063150b7a0290611157903390899088908890600401611c4a565b6020604051808303816000875af1925050508015611192575060408051601f3d908101601f1916820190925261118f91810190611c87565b60015b6111ef573d8080156111c0576040519150601f19603f3d011682016040523d82523d6000602084013e6111c5565b606091505b5080516000036111e75760405162461bcd60e51b815260040161046090611bc9565b805181602001fd5b6001600160e01b031916630a85bd0160e11b149050610b7e565b506001949350505050565b6000818152600260205260409020546060906001600160a01b03166112935760405162461bcd60e51b815260206004820152602f60248201527f4552433732314d657461646174613a2055524920717565727920666f72206e6f60448201526e3732bc34b9ba32b73a103a37b5b2b760891b6064820152608401610460565b60006112aa60408051602081019091526000815290565b905060008151116112ca57604051806020016040528060008152506106b7565b806112d484611501565b6040516020016112e5929190611c1b565b6040516020818303038152906040529392505050565b6001600160a01b0383166113565761135181600880546000838152600960205260408120829055600182018355919091527ff3f7a9fe364faab93b216da50a3214154f22a0a2b415b23a84c8169e8b636ee30155565b611379565b816001600160a01b0316836001600160a01b031614611379576113798382611602565b6001600160a01b038216611390576105958161169f565b826001600160a01b0316826001600160a01b03161461059557610595828261174e565b6001600160a01b0382166114095760405162461bcd60e51b815260206004820181905260248201527f4552433732313a206d696e7420746f20746865207a65726f20616464726573736044820152606401610460565b6000818152600260205260409020546001600160a01b03161561146e5760405162461bcd60e51b815260206004820152601c60248201527f4552433732313a20746f6b656e20616c7265616479206d696e746564000000006044820152606401610460565b61147a600083836110d5565b6001600160a01b03821660009081526003602052604081208054600192906114a3908490611bb1565b909155505060008181526002602052604080822080546001600160a01b0319166001600160a01b03861690811790915590518392907fddf252ad1be2c89b69c2b068fc378daa952ba7f163c4a11628f55a4df523b3ef908290a45050565b6060816000036115285750506040805180820190915260018152600360fc1b602082015290565b8160005b8115611552578061153c81611ca4565b915061154b9050600a83611cd3565b915061152c565b60008167ffffffffffffffff81111561156d5761156d6118cb565b6040519080825280601f01601f191660200182016040528015611597576020820181803683370190505b5090505b8415610b7e576115ac600183611b9a565b91506115b9600a86611ce7565b6115c4906030611bb1565b60f81b8183815181106115d9576115d9611b6e565b60200101906001600160f81b031916908160001a9053506115fb600a86611cd3565b945061159b565b6000600161160f846107e3565b6116199190611b9a565b60008381526007602052604090205490915080821461166c576001600160a01b03841660009081526006602090815260408083208584528252808320548484528184208190558352600790915290208190555b5060009182526007602090815260408084208490556001600160a01b039094168352600681528383209183525290812055565b6008546000906116b190600190611b9a565b600083815260096020526040812054600880549394509092849081106116d9576116d9611b6e565b9060005260206000200154905080600883815481106116fa576116fa611b6e565b600091825260208083209091019290925582815260099091526040808220849055858252812055600880548061173257611732611cfb565b6001900381819060005260206000200160009055905550505050565b6000611759836107e3565b6001600160a01b039093166000908152600660209081526040808320868452825280832085905593825260079052919091209190915550565b6001600160e01b0319811681146109f957600080fd5b6000602082840312156117ba57600080fd5b81356106b781611792565b60005b838110156117e05781810151838201526020016117c8565b838111156109205750506000910152565b600081518084526118098160208601602086016117c5565b601f01601f19169290920160200192915050565b6020815260006106b760208301846117f1565b60006020828403121561184257600080fd5b5035919050565b80356001600160a01b038116811461186057600080fd5b919050565b6000806040838503121561187857600080fd5b61188183611849565b946020939093013593505050565b6000806000606084860312156118a457600080fd5b6118ad84611849565b92506118bb60208501611849565b9150604084013590509250925092565b634e487b7160e01b600052604160045260246000fd5b604051601f8201601f1916810167ffffffffffffffff8111828210171561190a5761190a6118cb565b604052919050565b600080828403606081121561192657600080fd5b61192f84611849565b92506040601f198201121561194357600080fd5b506040516040810167ffffffffffffffff8282108183111715611968576119686118cb565b816040526020860135835260408601359150808216821461198857600080fd5b506020820152919491935090915050565b6000602082840312156119ab57600080fd5b6106b782611849565b600080604083850312156119c757600080fd5b6119d083611849565b9150602083013580151581146119e557600080fd5b809150509250929050565b60008060008060808587031215611a0657600080fd5b611a0f85611849565b93506020611a1e818701611849565b935060408601359250606086013567ffffffffffffffff80821115611a4257600080fd5b818801915088601f830112611a5657600080fd5b813581811115611a6857611a686118cb565b611a7a601f8201601f191685016118e1565b91508082528984828501011115611a9057600080fd5b808484018584013760008482840101525080935050505092959194509250565b60008060408385031215611ac357600080fd5b611acc83611849565b9150611ada60208401611849565b90509250929050565b600181811c90821680611af757607f821691505b602082108103611b1757634e487b7160e01b600052602260045260246000fd5b50919050565b60208082526031908201527f4552433732313a207472616e736665722063616c6c6572206973206e6f74206f6040820152701ddb995c881b9bdc88185c1c1c9bdd9959607a1b606082015260800190565b634e487b7160e01b600052603260045260246000fd5b634e487b7160e01b600052601160045260246000fd5b600082821015611bac57611bac611b84565b500390565b60008219821115611bc457611bc4611b84565b500190565b60208082526032908201527f4552433732313a207472616e7366657220746f206e6f6e20455243373231526560408201527131b2b4bb32b91034b6b83632b6b2b73a32b960711b606082015260800190565b60008351611c2d8184602088016117c5565b835190830190611c418183602088016117c5565b01949350505050565b6001600160a01b0385811682528416602082015260408101839052608060608201819052600090611c7d908301846117f1565b9695505050505050565b600060208284031215611c9957600080fd5b81516106b781611792565b600060018201611cb657611cb6611b84565b5060010190565b634e487b7160e01b600052601260045260246000fd5b600082611ce257611ce2611cbd565b500490565b600082611cf657611cf6611cbd565b500690565b634e487b7160e01b600052603160045260246000fdfea2646970667358221220376b2b86e93b85597eaf0e403e8867dfe22f52f0d8bcf90e1fded968fb32e7df64736f6c634300080e0033",
  "devdoc": {
    "kind": "dev",
    "methods": {
      "approve(address,uint256)": {
        "details": "See {IERC721-approve}."
      },
      "balanceOf(address)": {
        "details": "See {IERC721-balanceOf}."
      },
      "getApproved(uint256)": {
        "details": "See {IERC721-getApproved}."
      },
      "isApprovedForAll(address,address)": {
        "details": "See {IERC721-isApprovedForAll}."
      },
      "name()": {
        "details": "See {IERC721Metadata-name}."
      },
      "owner()": {
        "details": "Returns the address of the current owner."
      },
      "ownerOf(uint256)": {
        "details": "See {IERC721-ownerOf}."
      },
      "renounceOwnership()": {
        "details": "Leaves the contract without owner. It will not be possible to call `onlyOwner` functions anymore. Can only be called by the current owner. NOTE: Renouncing ownership will leave the contract without an owner, thereby removing any functionality that is only available to the owner."
      },
      "safeTransferFrom(address,address,uint256)": {
        "details": "See {IERC721-safeTransferFrom}."
      },
      "safeTransferFrom(address,address,uint256,bytes)": {
        "details": "See {IERC721-safeTransferFrom}."
      },
      "setApprovalForAll(address,bool)": {
        "details": "See {IERC721-setApprovalForAll}."
      },
      "symbol()": {
        "details": "See {IERC721Metadata-symbol}."
      },
      "tokenByIndex(uint256)": {
        "details": "See {IERC721Enumerable-tokenByIndex}."
      },
      "tokenOfOwnerByIndex(address,uint256)": {
        "details": "See {IERC721Enumerable-tokenOfOwnerByIndex}."
      },
      "totalSupply()": {
        "details": "See {IERC721Enumerable-totalSupply}."
      },
      "transferFrom(address,address,uint256)": {
        "details": "See {IERC721-transferFrom}."
      },
      "transferOwnership(address)": {
        "details": "Transfers ownership of the contract to a new account (`newOwner`). Can only be called by the current owner."
      }
    },
    "version": 1
  },
  "userdoc": {
    "kind": "user",
    "methods": {},
    "version": 1
  },
  "storageLayout": {
    "storage": [
      {
        "astId": 130,
        "contract": "src/POWRemembranceToken.sol:POWRemembranceToken",
        "label": "_name",
        "offset": 0,
        "slot": "0",
        "type": "t_string_storage"
      },
      {
        "astId": 132,
        "contract": "src/POWRemembranceToken.sol:POWRemembranceToken",
        "label": "_symbol",
        "offset": 0,
        "slot": "1",
        "type": "t_string_storage"
      },
      {
        "astId": 136,
        "contract": "src/POWRemembranceToken.sol:POWRemembranceToken",
        "label": "_owners",
        "offset": 0,
        "slot": "2",
        "type": "t_mapping(t_uint256,t_address)"
      },
      {
        "astId": 140,
        "contract": "src/POWRemembranceToken.sol:POWRemembranceToken",
        "label": "_balances",
        "offset": 0,
        "slot": "3",
        "type": "t_mapping(t_address,t_uint256)"
      },
      {
        "astId": 144,
        "contract": "src/POWRemembranceToken.sol:POWRemembranceToken",
        "label": "_tokenApprovals",
        "offset": 0,
        "slot": "4",
        "type": "t_mapping(t_uint256,t_address)"
      },
      {
        "astId": 150,
        "contract": "src/POWRemembranceToken.sol:POWRemembranceToken",
        "label": "_operatorApprovals",
        "offset": 0,
        "slot": "5",
        "type": "t_mapping(t_address,t_mapping(t_address,t_bool))"
      },
      {
        "astId": 1119,
        "contract": "src/POWRemembranceToken.sol:POWRemembranceToken",
        "label": "_ownedTokens",
        "offset": 0,
        "slot": "6",
        "type": "t_mapping(t_address,t_mapping(t_uint256,t_uint256))"
      },
      {
        "astId": 1123,
        "contract": "src/POWRemembranceToken.sol:POWRemembranceToken",
        "label": "_ownedTokensIndex",
        "offset": 0,
        "slot": "7",
        "type": "t_mapping(t_uint256,t_uint256)"
      },
      {
        "astId": 1126,
        "contract": "src/POWRemembranceToken.sol:POWRemembranceToken",
        "label": "_allTokens",
        "offset": 0,
        "slot": "8",
        "type": "t_array(t_uint256)dyn_storage"
      },
      {
        "astId": 1130,
        "contract": "src/POWRemembranceToken.sol:POWRemembranceToken",
        "label": "_allTokensIndex",
        "offset": 0,
        "slot": "9",
        "type": "t_mapping(t_uint256,t_uint256)"
      },
      {
        "astId": 1455,
        "contract": "src/POWRemembranceToken.sol:POWRemembranceToken",
        "label": "_tokenURIs",
        "offset": 0,
        "slot": "10",
        "type": "t_mapping(t_uint256,t_string_storage)"
      },
      {
        "astId": 7,
        "contract": "src/POWRemembranceToken.sol:POWRemembranceToken",
        "label": "_owner",
        "offset": 0,
        "slot": "11",
        "type": "t_address"
      },
      {
        "astId": 2209,
        "contract": "src/POWRemembranceToken.sol:POWRemembranceToken",
        "label": "pows",
        "offset": 0,
        "slot": "12",
        "type": "t_mapping(t_uint256,t_struct(POW)2204_storage)"
      }
    ],
    "types": {
      "t_address": {
        "encoding": "inplace",
        "label": "address",
        "numberOfBytes": "20"
      },
      "t_array(t_uint256)dyn_storage": {
        "base": "t_uint256",
        "encoding": "dynamic_array",
        "label": "uint256[]",
        "numberOfBytes": "32"
      },
      "t_bool": {
        "encoding": "inplace",
        "label": "bool",
        "numberOfBytes": "1"
      },
      "t_bytes32": {
        "encoding": "inplace",
        "label": "bytes32",
        "numberOfBytes": "32"
      },
      "t_mapping(t_address,t_bool)": {
        "encoding": "mapping",
        "key": "t_address",
        "label": "mapping(address => bool)",
        "numberOfBytes": "32",
        "value": "t_bool"
      },
      "t_mapping(t_address,t_mapping(t_address,t_bool))": {
        "encoding": "mapping",
        "key": "t_address",
        "label": "mapping(address => mapping(address => bool))",
        "numberOfBytes": "32",
        "value": "t_mapping(t_address,t_bool)"
      },
      "t_mapping(t_address,t_mapping(t_uint256,t_uint256))": {
        "encoding": "mapping",
        "key": "t_address",
        "label": "mapping(address => mapping(uint256 => uint256))",
        "numberOfBytes": "32",
        "value": "t_mapping(t_uint256,t_uint256)"
      },
      "t_mapping(t_address,t_uint256)": {
        "encoding": "mapping",
        "key": "t_address",
        "label": "mapping(address => uint256)",
        "numberOfBytes": "32",
        "value": "t_uint256"
      },
      "t_mapping(t_uint256,t_address)": {
        "encoding": "mapping",
        "key": "t_uint256",
        "label": "mapping(uint256 => address)",
        "numberOfBytes": "32",
        "value": "t_address"
      },
      "t_mapping(t_uint256,t_string_storage)": {
        "encoding": "mapping",
        "key": "t_uint256",
        "label": "mapping(uint256 => string)",
        "numberOfBytes": "32",
        "value": "t_string_storage"
      },
      "t_mapping(t_uint256,t_struct(POW)2204_storage)": {
        "encoding": "mapping",
        "key": "t_uint256",
        "label": "mapping(uint256 => struct POWRemembranceToken.POW)",
        "numberOfBytes": "32",
        "value": "t_struct(POW)2204_storage"
      },
      "t_mapping(t_uint256,t_uint256)": {
        "encoding": "mapping",
        "key": "t_uint256",
        "label": "mapping(uint256 => uint256)",
        "numberOfBytes": "32",
        "value": "t_uint256"
      },
      "t_string_storage": {
        "encoding": "bytes",
        "label": "string",
        "numberOfBytes": "32"
      },
      "t_struct(POW)2204_storage": {
        "encoding": "inplace",
        "label": "struct POWRemembranceToken.POW",
        "members": [
          {
            "astId": 2201,
            "contract": "src/POWRemembranceToken.sol:POWRemembranceToken",
            "label": "mixHash",
            "offset": 0,
            "slot": "0",
            "type": "t_bytes32"
          },
          {
            "astId": 2203,
            "contract": "src/POWRemembranceToken.sol:POWRemembranceToken",
            "label": "nonce",
            "offset": 0,
            "slot": "1",
            "type": "t_uint64"
          }
        ],
        "numberOfBytes": "64"
      },
      "t_uint256": {
        "encoding": "inplace",
        "label": "uint256",
        "numberOfBytes": "32"
      },
      "t_uint64": {
        "encoding": "inplace",
        "label": "uint64",
        "numberOfBytes": "8"
      }
    }
  }
}